:020000040800F2
:1000000080FB0020111F0008710400087304000821
:100010007504000877040008790400080000000057
:100020000000000000000000000000002D02000899
:100030007B04000800000000710200088D1C00080D
:100040002B1F00082B1F00082B1F00082B1F000868
:100050002B1F00082B1F00082B1F00082B1F000858
:10006000DF1800082B1F00082B1F00082B1F00089B
:100070002B1F00082B1F00082B1F00082B1F000838
:100080002B1F00082B1F00082B1F00082B1F000828
:100090002B1F00082B1F00082B1F00082B1F000818
:1000A0002B1F00082B1F00082B1F00082B1F000808
:1000B0002B1F00087F0600082B1F00082B1F0008BD
:1000C0002B1F00082B1F00082B1F00082B1F0008E8
:1000D0002B1F00082B1F00082B1F0008E11E000823
:1000E0002B1F00082B1F00082B1F00082B1F0008C8
:1000F0002B1F00082B1F00082B1F00082B1F0008B8
:100100002B1F00082B1F00082B1F00082B1F0008A7
:100110002B1F00082B1F00082B1F00082B1F000897
:100120002B1F00082B1F00082B1F00082B1F000887
:1001300000F002F800F06BF80AA090E8000C82448E
:100140008344AAF10107DA4501D100F060F8AFF26B
:10015000090EBAE80F0013F0010F18BFFB1A43F0A5
:100160000103184794930200B49302000A444FF02D
:10017000000C10F8013B13F0070408BF10F8014B06
:100180001D1108BF10F8015B641E05D010F8016B4B
:10019000641E01F8016BF9D113F0080F1EBF10F8AF
:1001A000014BAD1C0C1B09D16D1E58BF01F801CBD2
:1001B000FAD505E014F8016B01F8016B6D1EF9D555
:1001C0009142D6D37047000000230024002500266A
:1001D000103A28BF78C1FBD8520728BF30C148BFAA
:1001E0000B607047642921F01385752921F0108573
:1001F000782921F04985632921F0D387732921F0DB
:10020000D887002070471FB51FBD10B510BD22F064
:100210000DF81146FFF7F7FF00F089F822F02BF8F0
:1002200003B4FFF7F2FF03BC01F09CFD224B1968F9
:100230000868B0E8F00F80F30988BFF36F8F4FF0C4
:10024000000080F311884EF00D0E70470000000092
:1002500006480068006880F3088862B661B6BFF39C
:100260004F8FBFF36F8F00DF00BF00BF08ED00E0CE
:10027000EFF30980BFF36F8F0F4B1A6820E9F00F7F
:10028000106008B54FF0500080F31188BFF34F8F16
:10029000BFF36F8F20F0B0F84FF0000080F31188AB
:1002A000BDE8084019680868B0E8F00F80F30988D5
:1002B000BFF36F8F704700BF70010020EFF3058020
:1002C0007047000010B501F0EBFC4FF4A06001F0A6
:1002D0003FFE4FF4E13001F04FFD00F07BF941F6B5
:1002E0001F41092000F09EF901F03CF800F03DFFAD
:1002F000BDE810404FA021F041BC10B5102907D136
:100300001EF0BEFC0146BDE810404CA021F036BCFA
:1003100010BD00B589B0102907D1202269461EF012
:1003200029FB69464AA021F029FC09B000BD08B5A7
:10033000FFF7C8FF4FF478404FF4F07400210090AD
:1003400023462822084600F0AFF94FF4FC600090E5
:10035000234650220021282000F0A6F91F200090FB
:10036000234678220021502000F09EF94FF6E070DD
:1003700000902346A0220021782000F095F94FF646
:10038000FF7000902346C8220021B42000F08CF9B1
:1003900047F67C5000902346F0220021C82000F050
:1003A00083F905F0D9FE03F082F903F0BCF900F0FF
:1003B0003AF800211EF0C5FE0446322003460090A4
:1003C00001220021204607F01FF90F22C8212046F4
:1003D00007F0ABFF20460021642219F092FD21496D
:1003E000204608F0EAFB00F01EF800211EF0A3F9F9
:1003F000044601221C491DF016FE042120461DF072
:10040000D5FD00200346024601460090204607F035
:10041000FBF81649204608F0D0FB012001F076FCDD
:1004200014F046FBF9E710B511F015FFBDE81040D8
:1004300003F090B973746172740D0A00536C6964AF
:1004400065722076616C75653A2025640D0A00009E
:1004500053656C6563746564206D6F6E74683A20D3
:1004600025730A00FB0200084C94020813030008DD
:100470007047FEE7FEE7FEE7FEE770470CB5002297
:100480004C4800920192016841F4803101604FF4C0
:10049000A063016801F4003101910099491C0091A9
:1004A000019911B900999942F3D10168890333D5B3
:1004B0000121019140490A6842F010020A600A686D
:1004C00022F003020A600A6842F002020A604168F0
:1004D000416041684160416841F480614160416828
:1004E00021F47C114160416841F4E81141600168E8
:1004F00041F08071016001688901FCD5416821F0FB
:1005000003014160416841F0020141604168C1F36B
:1005100081010229FAD10CBD01920CBD254810B50C
:10052000016841F0010101604168244A11404160C5
:100530000168234A11400160016821F480210160B3
:10054000416821F4FE0141604FF41F018160FFF713
:1005500095FF1C494FF00060086010BD154A10B5AA
:100560005068194B10F00C01184803D0042901D031
:10057000082901D0036012E05168536801F470113A
:100580004FF0020413F4803F04EB914102D0536812
:100590009B0301D50E4B00E00B4B594301605168A2
:1005A0000A4AC1F30311121D515C0268CA4002607D
:1005B00010BD000000100240002002400000FFF8C3
:1005C000FFFFF6FE08ED00E000127A0000000020B8
:1005D00000093D0038B50121482001F050FF2024DA
:1005E000ADF8004010208DF8030003200B4D8DF86E
:1005F00002006946284601F05AFD2021284601F0F4
:10060000C0FDADF80040064C6946204601F04FFDA4
:100610002021204601F0B5FD38BD0000000C01404E
:10062000001801407FB50D4604460121022001F06B
:100630002FFFADF80440ADF800500024194DADF87F
:100640000640ADF802406946284601F0FFFF01224E
:100650001146284602F0B7FA1D218DF80C108DF8CE
:100660000D4003208DF80E0001208DF80F0003A827
:1006700001F073FC0121284602F090FA7FBD10B50D
:10068000084C0121204602F0B2FC002808D00121CC
:10069000204602F0B8FCBDE81040012011F06ABF0E
:1006A00010BD0000000400402DE9F04780461F46C1
:1006B000581E83B21646501E82B20D464046DDF8E3
:1006C000209000F033FD0AE0444604E0484600F084
:1006D0001AFD641CA4B2B442F8D36D1CADB2BD4285
:1006E000F2D3BDE8F0872DE9F0471C4617460E46C9
:1006F0008146089D00F01AFD04F101087F1C0BE003
:100700004C4605E0288800F0FEFC641CA4B2AD1C39
:10071000BC42F7D3761CB6B24645F1D3E1E710B53B
:1007200014460B46024600F001FD2046BDE810408D
:1007300000F0E9BC2DE9FE4F0026A2EB000882463E
:100740005F1A701E35468946B8F1000F02DD4FF082
:10075000010102E003D14FF00001019102E0C8F174
:1007600000080190002F02DD4FF0010002E003D1EC
:100770004FF00000009002E0C7F1000700904046F3
:10078000B84501DD044600E03C46601C4FF0000B1C
:10079000029016E01FFA89F11FFA8AF00C9AFFF70F
:1007A000BEFF46443D44A64202DD0199361B8A4401
:1007B000A54202DD00992D1B89440BF101001FFAAF
:1007C00080FB02998B45E5DBBDE8FE8F2DE9F84300
:1007D0001D46089C1646884607460B460094FFF7C0
:1007E000A9FF3A462B46414610460094FFF7A2FF68
:1007F0002B463246194638460094FFF79BFF324697
:100800002B46414610460094FFF794FFBDE8F8835D
:100810002DE9F05F15461C46DDF828B00E46074668
:1008200001EB040800EB050A1FFA88F11FFA8AF0B1
:100830005A46FFF774FF1FFA88F1A7EB05081FFA65
:1008400088F05A46FFF76BFFA6EB04091FFA89F1FF
:100850001FFA8AF05A46FFF762FF1FFA89F11FFA62
:1008600088F05A46FFF75BFF06EB050907EB040823
:100870001FFA89F11FFA88F05A46FFF750FF3C1B18
:100880001FFA89F1A0B25A46FFF749FF751BA9B2BA
:100890001FFA88F05A46FFF742FFA9B2A0B25A46A3
:1008A000BDE8F05F3BE72DE9F84F894616468246E2
:1008B0000024714203220A98984602EB4105C8B908
:1008C00030E0274608E03B46224649465046CDF8F0
:1008D0000080FFF79DFF7F1CB742F4DD002D03DA97
:1008E00005EB8405AD1D04E0A01B05EB80050A3572
:1008F000761E641CB442E4DDBDE8F88F3346224620
:1009000049465046CDF80080FFF782FF002D03DAFC
:1009100005EB8405AD1D04E0A01B05EB80050A3541
:10092000761E641CB442E9DDE6E72DE9FF4F85B091
:100930000546139F002600908B46780700D00120C3
:1009400000EBD7007843029005204FF0000A039097
:10095000F849079A0AEB8A1011F81030127893427E
:100960004DD101EB400001904178079840788142D9
:1009700045D10BEB0700401E83B2E819401E82B23E
:100980005946284600F0D2FB002034E001980024AC
:1009900000EB0809149899F8021000284FF00100A4
:1009A00000FA04F001EA000111D021B159462846AD
:1009B000089AFFF7B4FE6D1C0098ADB2281AB84231
:1009C00012D10BF101001FFA80FB009D10E009B16C
:1009D000089800E0129800F096FB761CF6B2B6FB81
:1009E000F7F007FB1060A0B1641CE4B2082CD1D36F
:1009F00008F10100C0B2029980468842C6D30AF1CC
:100A0000010003991FFA80FA8A45A1D309B0BDE815
:100A1000F08F0026ECE72DE9FF4F85B00546139FC8
:100A2000002600908B46780700D0012000EBD7000D
:100A300078430290052003900020824600EB80015D
:100A400001EB4A10BC49079A11F810301278934212
:100A50004DD101EB400001904178079840788142E8
:100A600045D10BEB0700401E83B2E819401E82B24D
:100A70005946284600F05AFB002034E00198002433
:100A800000EB0809149899F8021000284FF00100B3
:100A900000FA04F001EA000111D021B159462846BC
:100AA000089AFFF73CFE6D1C0098ADB2281AB842B8
:100AB00012D10BF101001FFA80FB009D10E009B17B
:100AC000089800E0129800F01EFB761CF6B2B6FB08
:100AD000F7F007FB106090B1641CE4B2082CD1D38E
:100AE00008F10100C0B2029980468842C6D30AF1DB
:100AF000010080B20399824688429FD386E7002690
:100B0000EEE72DE9FF4F85B00546139F00260090C4
:100B10008B46780700D0012000EBD7007843029085
:100B200005204FF0000A03908449079A0AEB0A1047
:100B300011F81030127893424DD101EB4000019032
:100B4000417807984078814245D10BEB0700401E61
:100B500083B2E819401E82B25946284600F0E6FAF0
:100B6000002034E00198002400EB0809149899F85B
:100B7000021000284FF0010000FA04F001EA000121
:100B800011D021B159462846089AFFF7C8FD6D1CBF
:100B90000098ADB2281AB84212D10BF101001FFA29
:100BA00080FB009D10E009B1089800E0129800F069
:100BB000AAFA761CF6B2B6FBF7F007FB106090B10C
:100BC000641CE4B2082CD1D308F10100C0B2029930
:100BD00080468842C6D30AF1010003991FFA80FAC1
:100BE0008A45A1D312E70026EEE72DE9FF4F85B035
:100BF0000546139F002600908B46780700D0012001
:100C000000EBD70078430290052003900020824635
:100C100000EB800101EBCA004949079A11F8103036
:100C2000127893424DD101EB400001904178079832
:100C30004078814245D10BEB0700401E83B2E81992
:100C4000401E82B25946284600F070FA002034E077
:100C50000198002400EB0809149899F80210002864
:100C60004FF0010000FA04F001EA000111D021B1B7
:100C700059462846089AFFF752FD6D1C0098ADB200
:100C8000281AB84212D10BF101001FFA80FB009D17
:100C900010E009B1089800E0129800F034FA761CD0
:100CA000F6B2B6FBF7F007FB106090B1641CE4B23B
:100CB000082CD1D308F10100C0B2029980468842C5
:100CC000C6D30AF1010080B20399824688429FD3BD
:100CD0009CE60026EEE72DE9FE4F9946DDE90D453D
:100CE00017468A4680460C9E15E00C2C17D0102C17
:100CF00028D0182C30D0202C10D100964B463A46E4
:100D000051464046CDE90145FFF70FFE08EB0400D0
:100D10001FFA80F8BF1C38780028E6D154E5009609
:100D20004B463A4651464046CDE90145FFF75DFF47
:100D3000ECE700000A5B020898590208EE58020826
:100D40006C58020800964B463A4651464046CDE95B
:100D50000145FFF7D6FED9E700964B463A46514685
:100D60004046CDE90145FFF756FECFE72DE9FF4F9D
:100D700083B00746DDF8449000904FEA590A4FF0DF
:100D800000085FEA4A7000D0012000EBDA0000FBA7
:100D900009F001900498203A4844401E83B207EBC2
:100DA0000A0002F0FF0B401E82B23846049900F0A0
:100DB000BDF9002550E0B9F10C0F28D0B9F1100FA2
:100DC0002BD0B9F1180F2CD0B9F1200F47D18E4993
:100DD00001EB8B100024465D129800284FF00100B3
:100DE00000FA04F000EA060021D020B13846069A45
:100DF0000499FFF794FC7F1C0098BFB2391A514543
:100E000024D10498009F401C80B2049022E07F49C6
:100E10000BEB4B0001EB8000DCE77D4901EB0B1095
:100E2000D8E77C490BEB4B0001EB0010D2E708B18F
:100E3000069800E0109800F066F908F10100C0B2D1
:100E4000B0FBFAF280460AFB128050B1641CE4B297
:100E5000082CC1D36D1CADB201988542ABD307B04D
:100E6000D5E54FF00008F5E72DE9FE4F9946DDE99D
:100E70000D6714468A460546DDF830800CE0CDF853
:100E800000804B4651462846CDE90167FFF76EFFCB
:100E900005EB560085B2641C2278002AEFD193E45A
:100EA0000346012000E05843491EC9B2FBD27047F7
:100EB0002DE9FF4F83B00027DDE911A81D468146CB
:100EC0004FEA58063C46BB462CE0281B401EC1B2E8
:100ED0000A20FFF7E5FF0599B1FBF0F00A21B0FB0E
:100EE000F1F201FB120027B9691E8C4201DA58B1F8
:100EF00001273030C2B2CDE900A804FB069080B2D1
:100F0000CDF808B0109B08E0CDE900A804FB0690DE
:100F1000109B80B2CDF808B020220499FFF726FF7D
:100F2000641CE4B2AC42D0D399E72DE9FF4F83B003
:100F30008146DDE911A71D467E083749104621F09C
:100F4000CFF921F0ADF91FFA80FB002431E0281B16
:100F5000401EC1B20A20FFF7A3FFBBFBF0F00A213D
:100F6000B0FBF1F201FB1208A81E844210D100224E
:100F7000CDF800A0CDE9017200FB069080B22E22D0
:100F8000109B0499FFF7F2FE641C6D1CE4B2EDB2F5
:100F90000020CDF800A0CDE9017008F13000C2B208
:100FA00004FB069080B2109B0499FFF7DFFE641CDF
:100FB000E4B2AC42CBD352E72DE9F04798469146D4
:100FC00001EB0802521E93B200EB0902521E0024EC
:100FD00092B2089F00F0AAF8002611E000250BE06D
:100FE00007EB4400407800F07EF817F8140000F09A
:100FF0007AF86D1CADB2641C4545F1D3761CB6B2CF
:101000004E45EBD3BDE8F087AC40020878240208D7
:10101000EC280208DC2E02080000C842F8B50121C5
:10102000402001F02CFA00F09DF90120ADF80000FD
:101030001025C94E8DF8035003248DF802406946EF
:10104000304601F034F80220ADF800008DF803506E
:101050008DF802406946304601F029F80420ADF8C9
:1010600000008DF803508DF802406946304601F0CB
:101070001EF84020ADF800008DF803508DF80240B6
:101080006946304601F013F8F8BD70B5B24D06461A
:101090000421284601F077F8B04C0221204602F0E6
:1010A00055FA0028F9D03146204602F00BFA80218B
:1010B000204602F04BFA0128F9D02846BDE87040DE
:1010C000042101F05EB870B5A34C0546022120460C
:1010D00001F059F82846FFF7D8FF2046BDE87040D8
:1010E000022101F04EB870B59B4C05460221204606
:1010F00001F047F82846FFF7C8FF2046BDE87040DA
:10110000022101F03EB870B5934D044602212846F5
:1011100001F037F8200AFFF7B8FFE0B2FFF7B5FF9C
:101120002846BDE87040022101F02BB82DE9F041BE
:1011300004461D4616460F462A20FFF7C4FF2046E8
:10114000FFF7E1FF3046FFF7DEFF2B20FFF7BBFF85
:101150003846FFF7D8FF2846FFF7D5FFBDE8F04136
:101160002C20B0E70B460246E0E770B5FFF756FFCC
:10117000794C0121204601F004F8322000F0C6FD30
:101180000121204600F0FFFF754D0421284600F0A4
:10119000FAFF322000F0BAFD0421284600F0F3FFE8
:1011A000012000F0B3FD0121204600F0EAFF782085
:1011B00000F0ACFD00F070FA00F0EDFA402120469E
:1011C00000F0DFFFE020FFF77EFF0020FFF78BFF3E
:1011D0000720FFF788FF0F20FFF785FF0D20FFF79F
:1011E00082FF1B20FFF77FFF0A20FFF77CFF3C20D8
:1011F000FFF779FF7820FFF776FF4A20FFF773FFAC
:101200000720FFF770FF0E20FFF76DFF0920FFF7A3
:101210006AFF1B20FFF767FF1E20FFF764FF0F2008
:10122000FFF761FFE120FFF74EFF0020FFF75BFFB4
:101230002220FFF758FF2420FFF755FF0620FFF775
:1012400052FF1220FFF74FFF0720FFF74CFF362019
:10125000FFF749FF4720FFF746FF4720FFF743FF0F
:101260000620FFF740FF0A20FFF73DFF0720FFF7AA
:101270003AFF3020FFF737FF3720FFF734FF0F200A
:10128000FFF731FFC020FFF71EFF1020FFF72BFFF5
:101290001020FFF728FFC120FFF715FF4120FFF7BF
:1012A00022FFC520FFF70FFF0020FFF71CFF2220C1
:1012B000FFF719FF8020FFF716FF3620FFF703FF27
:1012C0004820FFF710FF3A20FFF7FDFE5520FFF7FB
:1012D0000AFFB020FFF7F7FE0020FFF704FFB12060
:1012E000FFF7F1FEB020FFF7FEFE1120FFF7FBFE37
:1012F000B420FFF7E8FE0220FFF7F5FEB620FFF767
:10130000E2FE0220FFF7EFFE0220FFF7ECFEB7201F
:10131000FFF7D9FEC620FFF7E6FEE920FFF7D3FE70
:101320000020FFF7E0FEF720FFF7CDFEA920FFF732
:10133000DAFE5120FFF7D7FE2C20FFF7D4FE8220E3
:10134000FFF7D1FE1120FFF7BEFE782000F0DEFC93
:10135000BDE870402920B6E6001801400030014089
:10136000001C014070B5012186B0080301F087F828
:101370000121442001F083F82020ADF81400182545
:101380001F4E8DF8175003248DF8164005A93046DE
:1013900000F08DFE2021304600F0F3FE8020ADF8F5
:1013A00014008DF817508DF8164005A9304600F04E
:1013B0007EFE8021304600F0E4FE0820ADF80C00EF
:1013C0000120ADF808000220ADF806000020ADF8BD
:1013D0000400ADF80000ADF80E004FF48270ADF8D7
:1013E00002007015074CADF80A006946204601F06E
:1013F000C5FF0121204602F03DF806B070BD000097
:101400000008014000300140F8B50121082001F03A
:1014100036F80120ADF8000014248F4E8DF80340FB
:1014200003258DF802506946304600F040FE022048
:10143000ADF800008DF803408DF802506946304643
:1014400000F035FEF8BD08B50121082001F017F8BD
:101450000220ADF8000048208DF8030003208DF82D
:10146000020069467C4800F022FE08BD08B5012153
:10147000082001F004F80220ADF8000014208DF8D7
:10148000030003208DF802006946734800F00FFE48
:1014900008BD00BF00BF704710B5FFF7E7FF6E4CF7
:1014A0000121204600F06DFE0221204600F069FE79
:1014B00000BF00BF0221204600F065FE00BF00BF54
:1014C0000121204600F05FFE00BF00BF10BD10B537
:1014D000FFF7CCFF604C0221204600F054FE0121B2
:1014E000204600F04EFE00BF00BF0221204600F063
:1014F00048FE00BF00BF10BD10B5FFF7B7FF564C48
:101500000221204600F03FFE00BF00BF012120461F
:1015100000F037FE00BF00BF0121204600F033FE7F
:1015200000BF00BF0221204600F02BFE00BF00BF1D
:1015300010BD10B5FFF79AFF474C0221204600F07E
:1015400020FE00BF00BF0121204600F01AFE00BFB0
:1015500000BF0121204600F016FE00BF00BF10BDF5
:1015600070B500242546FFF76EFF3B4E0221304642
:1015700000F007FE00BF00BF0121304600F001FE71
:1015800000BF00BF07E0641CE4B2FA2C03D3FFF7EE
:101590009EFF012505E00221304600F0DEFD002817
:1015A000F1D10121304600F0EEFD00BF00BF28461A
:1015B00070BD70B50546FFF759FF274E0024280679
:1015C0004FF00201304602D500F0DBFD01E000F0F3
:1015D000DAFD00BF00BF0121304600F0D2FD00BFA0
:1015E00000BF0121304600F0CEFD6806641C050EE8
:1015F000E4B2082CE3D33046BDE87040022100F08D
:10160000C0BD2DE9F04107460024FFF71CFF124E34
:1016100000256006040E0121304600F0B2FD00BF37
:1016200000BF0221304600F098FD08B1641CE4B20E
:101630000121304600F0A7FD00BF00BF6D1CEDB2D8
:10164000082DE6D327B1FFF757FF2046BDE8F0810C
:10165000FFF76FFFF9E70000001C014038B50121DA
:10166000C02000F00CFF0120ADF8000010258DF81F
:10167000035003248DF802406946FB4800F017FD33
:101680000420ADF800008DF803508DF80240694643
:10169000F64800F00CFD38BD08B50121802000F0AF
:1016A000EEFE0420ADF8000048208DF803006946E6
:1016B000EE4800F0FCFC08BD70B5FFF7CFFFEA4C28
:1016C0000121204600F05FFDE84D0421284600F08E
:1016D0005AFD0F2000F01AFB0421284600F053FDAC
:1016E000012000F013FB0121204600F04AFD0F20ED
:1016F00000F00CFBBDE87040CEE770B50D46044627
:10170000FFF7CAFEBA20FFF754FFFFF729FF200AB0
:10171000FFF74FFFFFF724FFE0B2FFF74AFFFFF7A5
:101720001FFF2846FFF745FFFFF71AFFFFF7CFFE21
:10173000012070BD2DE9F04115460E460446FFF725
:10174000ABFEBA20FFF735FFFFF70AFF200AFFF7CD
:1017500030FFFFF705FFE0B2FFF72BFFFFF700FFB9
:10176000FFF79AFEBB20FFF724FFFFF7F9FE0024E6
:10177000771E09E0BC4201D1002000E00120FFF704
:1017800040FF2855641CE4B2B442F3D3FFF79FFE38
:101790000120BDE8F0811FB500208DF80C00FFF797
:1017A00033FE6A460B2148F24010FFF7C3FF03AA3D
:1017B000012148F24700FFF7BDFF9DF800003928DE
:1017C00003D0ABA020F0DAF91FBD6946ACA020F031
:1017D000D5F99DF804009DF8051000EB0121ADA09E
:1017E00020F0CCF99DF808009DF8091000EB0122CB
:1017F0009DF806009DF8071000EB0121AAA020F03B
:10180000BDF99DF80C10AEA020F0B8F91FBD7FB552
:101810000121084600F033FE0121802000F02FFE58
:101820000425ADF80C5048208DF80F0003A98F480F
:1018300000F03DFC4FF4A06000F08AFB08208DF81A
:10184000080002208DF809008DF80A0001248DF8A7
:101850000B4002A800F081FB0221052000F0DBFC18
:1018600000208DF804000C208DF8050000958DF8FF
:101870000640684601F0A6FE7FBD70B58CB048F208
:101880004E15002401AA2A212846FFF753FF002104
:101890002846FFF732FF9DF80400914D00F00F003D
:1018A0006870401E042818D801AE0FE006EBC40093
:1018B00005EB440142888A808088C88123460090D5
:1018C000194688A020F05AF9641CE4B26878A04256
:1018D000ECD8012028700CB070BD0020FAE710B5DC
:1018E000042001F0BFFE002806D0FFF7C6FFBDE8C8
:1018F0001040042001F0C4BE10BD2DE9F1437E4D1F
:1019000000244FF00A09287882B0401CC0B2B0FB16
:10191000F9F209FB1201724E287009B10A2864D24B
:1019200048F24E1702AA01213846FFF703FF9DF83F
:101930000800010607D500F00F00062803D2002199
:101940003846FFF7DAFE9DF8080001074DD000F099
:101950000F00062849D2FF218140C843B77840F0E4
:10196000C000B070B088B081F089F0824FF00108FB
:10197000B17808FA04F001421ED0604801AA04219F
:1019800030F81400FFF7D6FE9DF804009DF805100E
:1019900000EB012006EB440182B28A809DF806002C
:1019A0009DF8073000EB032080B2C88123460090E9
:1019B00019464CA020F0E2F8641CE4B2052CD7D301
:1019C000B28800213046B2F5A07F03D8C289B2F5B3
:1019D000F07F09D99DF8082002F00F02012A0BD9E7
:1019E000C2888280028AF28129709DF8080000F086
:1019F0008F00802809D015E081898180C18AC1814A
:101A000080218DF80810B770EFE7B078010602D595
:101A100020F0800005E04FF6FF71B180F18100F009
:101A2000E000B0702878F02801D985F80090BDE872
:101A3000FE832DE9F04117460E460546FEF76FFE80
:101A40006C1CA0B23A463146FEF769FE761CB1B274
:101A50003A462846FEF763FEB1B2A0B23A46BDE868
:101A6000F041FEF75CBE000000180140001C014080
:101A7000546F756368204572726F720D0A00000022
:101A8000546F7563682049443A204754252E3473B7
:101A9000200D0A00B9CCBCFEB0E6B1BEA3BA20301E
:101AA00058252E34780D0A00B4A5C3FEB7D6B1E68A
:101AB000C2CAA3BA2564202A2025640D0A000000AA
:101AC000B4A5C3FEB2CECAFDC5E4D6C3B0E6B1BE6E
:101AD000A3BA203058252E3278200D0A00000000CD
:101AE000E4010020785B25645D3A25642C795B2550
:101AF000645D3A25640D0A0014000020945D02081C
:101B00003EB54FF6FF7400214FF4F0734FF4A0720E
:101B100008460094FEF7C8FD002018210094CDE986
:101B2000011001464FF4784355A24FF48E70FFF731
:101B30009BF93EBD88B04FF00508FFF7E1FFDFF8E5
:101B400044A14FF0010B02AE4FF6FF790020FFF7E2
:101B5000D4FE002435E09AF802200BFA04F31A426E
:101B60002BD00AEB4405AA88B2F5A07F27D2EB89D7
:101B7000B3F5F07F23D236F824704F4504D106EB3D
:101B8000840126F824204B803F4906EB840731F876
:101B90001410CDE900B1798836F8240000F017F868
:101BA000A88826F82400E9897980B0F58E7F06D9C7
:101BB000142904D2FFF7A4FF01E026F82490641C46
:101BC000E4B24445C7D3052000F0A0F8BEE72DE9F4
:101BD000FF5F00260E9C3546A0424ED3A2424CD356
:101BE000A1424AD3A34248D3A2EB000882465F1A1F
:101BF000701E8946B8F1000F02DD4FF0010102E0CE
:101C000003D14FF00001029102E0C8F100080290F8
:101C1000002F02DD4FF0010002E003D14FF0000081
:101C2000019002E0C7F1000701904046B84501DD90
:101C3000044600E03C46601C4FF0000B039019E0A6
:101C400001200090DDE90E231FFA89F11FFA8AF0C6
:101C5000FEF729FE46443D44A64202DD0299361BAA
:101C60008A44A54202DD01992D1B89440BF1010034
:101C70001FFA80FB03998B45E2DDBDE8FF9F000062
:101C800052535400E40100209E5D020810B51EF07E
:101C90000FFF012803D0BDE810401FF096BE10BD15
:101CA00010B5042000F099F92B482C492C4A006803
:101CB000B0FBF1F3B0FBF1F14FF47A7041431370D4
:101CC000012050804FF0E020026942F002020261E0
:101CD0004161016941F00101016110BD70B54FF032
:101CE000E02500216C691E4AAB6912785043AA694D
:101CF0009A42FCD002D2A3EB020302E0A4EB02065C
:101D00003344194413468142F1D370BD70B5044683
:101D10001EF0CEFE01280CD0114D6888844203D3FA
:101D2000B4FBF0F01EF09CFA6888B4FBF0F100FB05
:101D300011444FF47A706043BDE87040CEE770B54F
:101D4000054600244FF47A7603E03046FFF7C6FFDD
:101D5000641CAC42F9D370BD0000002040420F006B
:101D600016000020704766490A885206FCD5644A6E
:101D7000C1B2121D11807047F0B50746012187B02E
:101D8000480400F085FB0121042000F078FB0425C5
:101D9000ADF8105003248DF812401820594E8DF8DC
:101DA000130004A9304600F082F90820ADF81000B5
:101DB0008DF8135004A9304600F079F926208DF8EB
:101DC00014008DF815408DF8164001208DF817008D
:101DD00005A800F0C2F80020ADF80400ADF8060038
:101DE000ADF80800ADF80C000C20454CADF80A0029
:101DF00000976946204601F039F9012240F2255149
:101E0000204601F0B0F90121204601F0A2F907B007
:101E1000F0BD70B50546012186B0880400F038FB9E
:101E20000121082000F02BFB4FF48060ADF810007A
:101E300003248DF812401820334E8DF8130004A9A6
:101E4000304600F034F9F014ADF8100004208DF89D
:101E5000130004A9304600F02AF927208DF8140059
:101E60008DF815408DF8164001208DF8170005A853
:101E700000F073F80020ADF80400ADF80600ADF8EE
:101E80000800ADF80C000C20204CADF80A000095BD
:101E90006946204601F0EAF8012240F22551204629
:101EA00001F061F90121204601F053F906B070BD3F
:101EB0002DE9F04116460D46074600240CE040216E
:101EC000384601F0FDF90028F9D015F8011B384615
:101ED00001F095F9641CA4B2B442F0D3BDE8F081DE
:101EE00010B50A4C40F22551204601F0F3F90028C4
:101EF00005D02046BDE81040202101F0E8B910BD12
:101F00000044004000080140000C0140004800402F
:101F10000948804709480047FEE7FEE7FEE7FEE77D
:101F2000FEE7FEE7FEE7FEE7FEE7FEE704480549B9
:101F3000054A064B704700001D05000831010008E6
:101F400080F1002080FB002080F3002080F300203F
:101F50002849084328490860704730B50F23C278E4
:101F600001780125F2B1244A126801F1E02102F45E
:101F7000E062C2F5E062120AC2F10404D340427882
:101F8000A24084781C401443220181F80024007888
:101F900000F01F018D404009800000F1E020C0F8F2
:101FA000005130BD01F01F0085404809800000F15C
:101FB000E020C0F8805130BD104A114001430E4866
:101FC000001F016070470C4A121D0029116801D0E2
:101FD000014300E08143116070474FF0E021042885
:101FE000086903D020F004000861704740F0040045
:101FF000FAE700000000FA050CED00E080FFFF1F8B
:102000008F4910B5884206D10121042000F049FA19
:10201000002104203BE08B49884206D101210820A1
:1020200000F03FFA0021082031E08749884206D1BC
:102030000121102000F035FA0021102027E083490B
:10204000884206D10121202000F02BFA0021202017
:102050001DE07F49884206D10121402000F021FA8D
:102060000021402013E07B49884206D101218020D5
:1020700000F017FA0021802009E0774988420AD150
:1020800084150121204600F00CFA00212046BDE80D
:10209000104000F006BA10BD10B50121084600F04E
:1020A00000FA0021BDE81040012000F0FAB9F0B5B7
:1020B000CC78002204F00F03E40601D58C7823438A
:1020C0000C784FF00F0C14F0FF0F4FF0010E1BD0E7
:1020D00005680E880EFA02F42640A64210D196003A
:1020E0000CFA06F725EA070703FA06F5CE783D4312
:1020F000282E02D0482E02D002E0446100E00461A4
:10210000521C082AE5D305600A88FF2A1CD94468B6
:10211000002202F108060EFA06F50E882E40AE42A5
:102120000ED196000CFA06F7BC4303FA06F7CE78F8
:102130003C43282E00D14561CE78482E00D1056160
:10214000521C082AE5D34460F0BD4FF6FF710180B0
:10215000022181700421C1707047024600209268FC
:102160000A4200D001207047806880B27047024662
:102170000020D2680A4200D001207047C06880B2B7
:10218000704701617047416170470AB10161704752
:1021900041617047C160704741F480328261816162
:1021A00082618169806970472C4B10B51A684FF6BF
:1021B0008074224042EA00100843186010BD28498C
:1021C000C8617047F0B5254C002801DAE36900E0EA
:1021D0006368450D2E0185B2C0F30157B540C0F3C9
:1021E0000342032F05D0C6020AD503269640B34307
:1021F00007E023F07062636823F07063636002E0BD
:10220000AB4343F0706201B12A43002801DAE26176
:10221000F0BD6260F0BD10B58A0721F003040F49DC
:10222000120F21440F238C6893409C438C608B6871
:10223000904003438B6010BD0949C1F8DC00704732
:1022400000080140000C0140001001400014014052
:1022500000180140001C0140002001400000014026
:1022600000002042A548016841F001010160416879
:10227000A34A114041600168A24A1140016001680F
:1022800021F480210160416821F4FE0141604FF496
:102290001F018160704799490A6822F480320A6000
:1022A0000A6822F480220A60B0F5803F07D0B0F5BA
:1022B000802F03D1086840F4A020086070470868A8
:1022C00040F48030F9E70346002059098B4A012980
:1022D0000AD002290AD0516A03F01F020123934059
:1022E0000B4200D0012070471168F5E7116AF3E74F
:1022F00018B500204FF4A06400903120FFF7E3FFF1
:102300000099491C0091A14201D00028F5D031204C
:10231000FFF7D9FF002800D0012018BD774A1168C7
:1023200021F0F80141EAC00010607047764908606A
:102330007047724B5A68084322F47C12104358606D
:1023400070477149086670476C4A516821F0030173
:102350000143516070476948406800F00C007047C5
:10236000664A516821F0F001014351607047634AA9
:10237000516821F4E0610143516070475F4A516840
:1023800021F4605141EAC000506070475B4A002967
:10239000517A01D0014300E08143517270475A499C
:1023A000C1F8D8007047554A516821F440410143B3
:1023B000516070475149002281F8202081F8202087
:1023C000012802D0042802D1052081F8200070479E
:1023D0004E490860704749490A6A02430A627047D9
:1023E0004A4944390860704730B5444A5168484BFF
:1023F00011F00C0103D0042901D0082901D0036099
:1024000012E05168536801F470114FF0020413F4A4
:10241000803F04EB914102D053689B0301D53D4BB3
:1024200000E03B4B5943016051680F2303EA11114F
:10243000394B5C5C0168E14041605468072505EA5E
:1024400014241C5D21FA04F48460546805EAD42441
:102450001B5DD940C1605268032303EA92322E4BC0
:102460001B1F9A5CB1FBF2F1016130BD234A0029C8
:10247000516901D0014300E08143516170471F4A17
:102480000029916901D0014300E0814391617047C7
:102490001A4A0029D16901D0014300E08143D1618A
:1024A0007047164A0029D16801D0014300E08143FA
:1024B000D1607047114A0029116901D0014300E041
:1024C00081431161704711494039086070470E49D6
:1024D000C86470470949C87170470848416A41F0AB
:1024E000807141627047054A0146002092680A42A5
:1024F00000D00120704701498872704700100240E7
:102500000000FFF8FFFFF6FE000042428004424256
:1025100000127A0000093D0024000020F94910B59E
:10252000884202D10121C41486E0B0F1804F09D065
:10253000F54988420DD101210220FFF7BBFF0021A0
:10254000022064E001210846FFF7B4FF00210120CA
:102550005DE0EE49884206D101210420FFF7AAFF81
:102560000021042053E0EA49884206D101210820D5
:10257000FFF7A0FF0021082049E0E649884206D184
:1025800001211020FFF796FF002110203FE0E249D3
:10259000884206D101212020FFF78CFF0021202056
:1025A00035E0DE49884202D10121441444E0DC498F
:1025B000884202D10121CC043EE0DA49884202D1AE
:1025C00001210C0538E0D849884202D101214C058F
:1025D00032E0D649884206D101214020FFF76AFF48
:1025E0000021402013E0D249884206D101218020F9
:1025F000FFF760FF0021802009E0CE4988420AD120
:10260000841501212046FFF755FF00212046BDE833
:102610001040FFF74FBFC849884202D101210C0486
:102620000AE0C649884202D101214C0404E0C449B1
:1026300088420AD101218C042046FFF732FF204650
:10264000BDE810400021FFF72CBF10BD30B5028857
:10265000AC4CB24DA0420DD0A8420BD0B0F1804F8F
:1026600008D0A94B984205D0A84B984202D0A84B5D
:10267000984203D122F070034A881A43A54B98422E
:1026800006D0A54B984203D022F44073CA881A435F
:1026900002808A8882850A880285A0420AD0A842E0
:1026A00008D0A54A904205D0A44A904202D0A44A3C
:1026B000904201D1097A01860121818230BD30B575
:1026C000028C22F001020284028C8388048B22F0A7
:1026D000020224F073050C882C430D8915434A88A7
:1026E0002A43884DA8420BD08C4DA84208D0924D69
:1026F000A84205D0914DA84202D0914DA8420DD1DB
:1027000022F008054A8923F440732A4322F0040585
:102710008A882A438D891D43CB892B438380048378
:10272000C9888186028430BD70B5028C22F0100207
:102730000284028C8388048B0D8824F4E6464FF6CD
:10274000FF7404EA052535430E8922F0200204EACD
:10275000061616434A8804EA02123243694EB04212
:1027600002D06E4EB04215D122F080064A8923F481
:10277000406304EA0212324322F040068A8804EAE7
:10278000021232438E8904EA86061E43CB8904EA8C
:102790008303334383800583C9880187028470BD26
:1027A00070B5028C22F480720284028C8388848B40
:1027B0000D8824F0730425430E894FF6FF7422F42C
:1027C000007204EA062616434A8804EA02223243CB
:1027D0004C4EB04202D0514EB04215D122F40066A8
:1027E0004A8923F4405304EA0222324322F48066E9
:1027F0008A8804EA022232438E8904EA06161E43BE
:10280000CB8904EA0313334383808583C988818796
:10281000028470BD70B5028C22F480520284058C53
:102820008288838B0C8823F4E6464FF6FF7303EA15
:102830000424344325F400560D8903EA0535354355
:102840004E8803EA06362E432E4DA84202D0334D61
:10285000A84205D122F480458A8903EA82122A43DC
:1028600082808483C988A0F84010068470BD828B62
:1028700022F440628283828B4FF6FF7303EA0121C8
:102880000A4382837047828B22F00C028283828B00
:102890000A4382837047028B22F440620283028BD8
:1028A0004FF6FF7303EA01210A4302837047F0B534
:1028B000048C24F010040484078B048C4FF6FF75FD
:1028C00027F4734705EA03333B4305EA02221A4320
:1028D0000C4B05EA011698420ED0104B98420BD0D3
:1028E000B0F1804F08D0084B984205D0074B984272
:1028F00002D0074B984225D124F02001314341F00A
:10290000100124E0002C01400004004000080040B9
:10291000000C004000100040001400400034014052
:10292000004C01400050014000540140001800409C
:10293000001C0040002000400040014000440140D5
:102940000048014024F0A0030B4343F01001028330
:102950000184F0BD028B22F00C020283028B0A4339
:102960000283704770B5048C24F001040484058B45
:10297000048C4FF6FF7606EA0313134325F0F305A4
:10298000F84A2B4390420ED0F74A90420BD0B0F158
:10299000804F08D0F54A904205D0F54A904202D0C7
:1029A000F44A904202D124F0020201E024F00A022B
:1029B0000A4342F001010383018470BD2DE9F84F01
:1029C0000D4604460888E74FDFF89CC3DFF89C8378
:1029D000DFF89C934988AA882B894FF0804A48B336
:1029E00004282FD04FF6FF760828934632D0208C4B
:1029F0009E4620F480502084A38B208C06EA01326E
:102A0000009223F4734306EA0B221A4306EA0E33BC
:102A10001343BC420AD0644508D0544506D044450F
:102A200004D04C4502D0D34A944242D120F4005005
:102A3000009940E02046FFF795FFE9882046BDE871
:102A4000F84F87E72046FFF732FFE9882046BDE8C8
:102A5000F84F20E7208C20F480702084B4F81CE02C
:102A6000208C06EA031306EA01222EF0F30E43EA55
:102A70000B0343EA0E030092BC420AD0644508D01F
:102A8000544506D0444504D04C4502D0B94A94423E
:102A900003D120F40070009901E020F42060084385
:102AA00040F48070A3832084E9882046BDE8F84F75
:102AB000E9E620F40240084340F48050A3832084D8
:102AC000E9882046BDE8F84FD1E62DE9F0410C46F3
:102AD000002649880746012501B90226A288012A55
:102AE00000D10225208823890028384610D0FFF71E
:102AF000DEFEE1883846FFF7CEFE23892A463146BE
:102B00003846FFF72FFFE1883846BDE8F04121E75E
:102B1000FFF728FFE1883846FFF71CFF23892A4684
:102B200031463846FFF7C3FEE1883846BDE8F0413C
:102B3000B1E610B50A884B88CC881A438B882343AA
:102B40001A430B891A434B8989891A430A43A0F80F
:102B5000442010BD4FF6FF71818000210180C180AB
:102B60004180017270470021018041808180C180D5
:102B7000018141818181C1817047002101804180B3
:102B800001228280C1800181704700210180418043
:102B90008180C18001814181818170470029018844
:102BA00002D041F0010101E021F0010101807047F4
:102BB000002930F8441F02D041F4004101E0C1F384
:102BC0000E0101807047002A828901D00A4300E08B
:102BD0008A4382817047818270471143A0F8481070
:102BE0007047002A828901D00A4300E08A4382812B
:102BF0007047018921F0070101817047028922F0A5
:102C000070020A430281704700B50346FFF7F6FFE2
:102C1000188940F00700188100BD70B516460D46B2
:102C2000602904464FF0010231460AD0FFF79AFEB0
:102C300029462046FFF7E2FF208940F00700208167
:102C400070BDFFF734FEF3E730B504894FF6FF752A
:102C500005EA03231343E4B20B432343038130BD4E
:102C600010B50446FFF7F0FF208940F0770020817F
:102C700010BD10B50446FFF7E7FF208940F48040FF
:102C8000208110BD018582827047028822F0700287
:102C90000A430280704770B50589048B068C25F0C5
:102CA00007050D434FF6FC410C4040F201110C4367
:102CB0004FF6FF7101EA031126F02206114331435A
:102CC00005810483018470BD028B22F070020A43E7
:102CD00002837047028B4FF6FF7322F4E04203EA4F
:102CE0000121114301837047828B22F070020A4355
:102CF00082837047828B4FF6FF7322F4E04203EA2F
:102D000001211143818370470029018802D041F0DD
:102D1000800101E021F08001018070470029818855
:102D200002D041F0040101E021F0040181807047EC
:102D30000029818802D041F0080101E021F008015A
:102D4000818070470029818802D041F0010101E0B3
:102D500021F0010181807047028B22F008020A43B2
:102D600002837047002C0140003401400004004001
:102D700000080040000C0040028B4FF6FF7322F465
:102D8000006203EA012111430183EAE7828B22F00A
:102D900008020A438283E4E7828B4FF6FF7322F432
:102DA000006203EA012111438183DAE7028B22F0FA
:102DB00004020A430283D4E7028B4FF6FF7322F426
:102DC000806203EA012111430183CAE7828B22F06A
:102DD00004020A438283C4E7828B4FF6FF7322F416
:102DE000806203EA012111438183BAE7028B22F05A
:102DF00080020A430283B4E7028B4FF6FF73C2F3EB
:102E00000E0203EA012111430183AAE7828B22F01B
:102E100080020A438283A4E7828B4FF6FF73C2F3DA
:102E20000E0203EA0121114381839AE7028C22F00A
:102E300002020A43028494E7028C22F008020A4349
:102E400002848EE7028C4FF6FF7322F0200203EA21
:102E500001111143018484E7028C4FF6FF7322F0C5
:102E6000800203EA0111114301847AE7028C4FF6D4
:102E7000FF7322F4007203EA01211143018470E719
:102E8000028C4FF6FF7322F4006203EA0121114322
:102E9000018466E7028C4FF6FF7322F4005203EAC6
:102EA0000131114301845CE710B50123048C8B4090
:102EB0009C430484038C8A401343038410BD10B5E3
:102EC0000423048C8B409C430484038C8A4013436A
:102ED000038410BD30B50124058C00F118038C402B
:102EE000A543058489B108290FD0091FC1F34E00FD
:102EF0001844016821F4E041016001684FF6FF7356
:102F000003EA02221143016030BD03EB5100016866
:102F100021F0700101600168F4E70029018802D006
:102F200041F0020101E021F00201018019E70029CE
:102F3000018802D041F0040101E021F00401018088
:102F40000FE70029818802D041F0800101E021F0E3
:102F50008001818005E7028822F008020280028851
:102F60000A430280FDE6828822F070028280828815
:102F70000A438280F5E6028922F007020281028973
:102F80000A430281EDE6028922F080020281028971
:102F90000A430281E5E68184E3E68185E1E68186F4
:102FA000DFE60187DDE68187DBE6A0F84010D8E6A2
:102FB000028822F44072028002880A430280D0E62E
:102FC000808ECEE6008FCCE6808FCAE6B0F8400057
:102FD000C7E6808CC5E6008DC3E602460020128A53
:102FE0000A4200D00120BCE6C9430182B9E602468C
:102FF0000020138A92890B4202EA010202D0002AC1
:1030000000D00120ADE6C9430182AAE6C44910B54B
:1030100088420AD101218C032046FFF742FA20465C
:10302000BDE810400021FFF73CBABE49884202D1FA
:1030300001214C0410E0BC49884202D101218C04DA
:103040000AE0BA49884202D10121CC0404E0B8491F
:1030500088420AD101210C052046FFF72BFA2046B1
:10306000BDE810400021FFF725BA10BD30B5044679
:10307000008A85B00D464CF6FF710840E98801438F
:103080002182A0894EF6F3110840A9882A891143AC
:103090006A8902431143A181A08A4FF6FF4108408B
:1030A000A9890143A1826846FFF79EF99C488442A2
:1030B00001D1039800E00298A189090400EBC00146
:1030C00001EB0010296801D5490000E08900B0FB40
:1030D000F1F06422B0FBF2F109010B096FF0180561
:1030E0006B4300EB8300A3891D044FF0320306D528
:1030F00003EBC000B0FBF2F000F0070005E003EBCB
:103100000010B0FBF2F000F00F000843208105B082
:1031100030BD4FF41651016000218180C1800181D2
:103120000C2242818181704710B5028A4FF2FF0361
:103130001A400B884C8823438C88C9880C4323434E
:103140001343038210BD0021018041808180C18032
:1031500070470029818902D041F4005101E021F437
:1031600000518181704710B5C1F3421301F01F0473
:103170000121A140012B07D0022B07D01430002AD7
:10318000026805D00A4304E00C30F8E71030F6E797
:103190008A43026010BD002A828A01D00A4300E0FF
:1031A0008A4382827047028A22F00F020282028AD8
:1031B0000A4302827047828922F4006282818289F6
:1031C0000A43828170470029818902D041F00201BF
:1031D00001E021F0020181817047028A22F0200281
:1031E0000282028A0A43028270470029018A02D0C1
:1031F00041F4804101E021F4804101827047C1F334
:103200000801818070478088C0F308007047818979
:1032100041F0010181817047028BD2B20283028B9F
:1032200042EA012101837047028B02F47F4202834C
:10323000028B0A43028370470029818A02D041F041
:10324000200101E021F02001818270470029818A5C
:1032500002D041F0100101E021F01001818270479D
:103260000029818A02D041F0080101E021F0080123
:10327000818270470029818902D041F4004101E038
:10328000C1F30E01818170470029818A02D041F487
:10329000006101E021F4006181827047828A22F09E
:1032A00004028282828A0A43828270470029818ACC
:1032B00002D041F0020101E021F002018182704759
:1032C0000246002012880A4200D001207047C943FC
:1032D0000180704770B501F01F0501260024C1F37D
:1032E000421306FA05F2012B0FD0022B0FD0838A6E
:1032F0004FEA11210088134206FA01F600EA06009F
:1033000001D000B10124204670BD8389F0E7038A13
:10331000EEE70A0A01219140C9430180704700008D
:10332000003801400044004000480040004C00408C
:1033300000500040994910B588420AD184140121F7
:103340002046FFF7AEF82046BDE810400021FFF709
:10335000A8B89349884202D10121041404E091499C
:1033600088420AD10121C4132046FFF7A3F8204662
:10337000BDE810400021FFF79DB810BD30B50288B0
:103380004C8802F441530A88CD8822438C882C4310
:1033900022430C8922434C8922438C892243CC89C5
:1033A00022431A430280828B22F400628283098ABC
:1033B000018230BDF0B505460C4602200021AA8BE3
:1033C00085B001264FF240031A40AA832884AF8BB0
:1033D000A268022A21D0A08800B102266846FFF721
:1033E00003F8E1880098B1F5007F2CD07101B0FBA3
:1033F000F1F000EB8000A1684000B0FBF1F0401D4F
:1034000080B20A21B0FBF1F000F00101401A4FF642
:10341000FF72C0F34F0002EA0121821EFE2A01D38F
:1034200002200021E288084302432A842088618820
:10343000A2890843A18811430843384340F400603F
:10344000A88305B0F0BD000AD3E7002101804180C8
:103450008180C180018141818181C18107210182F7
:1034600070470021018041808180C18002228260FA
:10347000818170470029018802D041F0400101E0BC
:1034800021F04001018070470029818B02D041F476
:10349000806101E021F48061818370470909012383
:1034A0008B40002A828899B201D00A4300E08A4307
:1034B00082807047002A828801D00A4300E08A4354
:1034C000828070478181704780897047A1F57E4274
:1034D0000188FF3A02D041F4807101E021F480714B
:1034E000018070470029818802D041F0040101E089
:1034F00021F0040181807047028822F4006202807A
:1035000002880A4302807047018841F4805101809B
:1035100070470029018802D041F4005101E021F4F4
:10352000005101807047012901D0008B7047808ACB
:103530007047008A7047B1F5804F018803D021F4AD
:1035400080410180704741F48041FAE70246002043
:1035500012890A4200D001207047C9430181704797
:1035600030B501F00F030125024605FA03F40020EF
:10357000A3B2090905FA01F49188A4B21289214085
:103580001A4202D0002900D0012030BD01F00F0204
:1035900001219140C9430181704700000030014082
:1035A00000380040003C0040374900200860091DF9
:1035B0000860091D0860091D08603349334814314B
:1035C0000860704730B5304A8379016853B3136897
:1035D0008B431360111D0B680468A3430B600179D2
:1035E00011440B68046823430B60274B08331968A8
:1035F0000468A14319601C1D21680568A943216066
:103600004179102905D011440A68006802430A6014
:1036100030BD1968026811431960216800680143D0
:10362000216030BD0079104402688A43026030BDD9
:103630000021016001710C224271817170471249B1
:1036400010310A6802430A60704701460E4A0020A2
:10365000143212680A4200D0012070470A4914311E
:1036600008607047084A014600201268064B0A406D
:1036700014331B680B4202D0002A00D0012070478F
:10368000014914310860704700040140FFFF0F003A
:1036900038B5054600924C88CB888A880888214630
:1036A000FDF721F82846BDE838400EF093BE00B57E
:1036B0000E498BB04FF448630022A1F124000EF0B4
:1036C00022FD68460EF000FD4FF4A070ADF800003A
:1036D0004FF4F070ADF80200054803900348243819
:1036E000019068460EF03AFD0BB000BD20020020AC
:1036F0009136000810B50C460020FEF7FEF812487F
:1037000081780A06114906D582880A808A1CC089F8
:103710001080012000E00020A073088820804888E5
:103720006080002010BD00B587B068460EF09EFE98
:1037300001208DF800000648019068460EF0AAFEB0
:103740000249486007B000BDE401002034000020B9
:10375000F536000810B518B90EF07DFD002800D030
:10376000C06B10BD10B518B90EF075FD002800D063
:10377000006C10BD10B5044602F025FA002805D0F3
:10378000C4632046BDE8104002F0D3BA10BD10B5A6
:1037900018B90EF060FD002800D0806C10BD10B587
:1037A00018B90EF058FD002800D0C06C10BD70B5DF
:1037B00004460D46084601F02AFE00280DD1284691
:1037C00002F001FAA04208D02A4604F13001BDE817
:1037D00070400123303010F072B970BD33B583B042
:1037E000040003D10EF037FD040017D0BDF810001F
:1037F000A4F8520020460EF031FD401E05B22046CE
:103800000EF040FD401E03B20022114601A80095B3
:103810000FF01CF901A9204606F083FB05B030BD6E
:103820003EB50D46040003D10EF015FD040013D083
:1038300065650EF013FD401E05B220460EF022FD18
:10384000401E03B20022114601A800950FF0FEF8B9
:1038500001A9204606F065FB3EBD3EB50D460400BD
:1038600003D10EF0F8FC040014D084F858500EF088
:10387000F5FC401E05B220460EF004FD401E03B2CA
:103880000022114601A800950FF0E0F801A920469A
:1038900006F047FB3EBD0A46D3B2002148F20C02B7
:1038A00002F004BC70B50546006802F08CF90446CD
:1038B000006C28B194F85010C90701D004F0F1FB56
:1038C0000020206460640021286804F062FFBDE8E5
:1038D000704048F20C0106F0A8BC70B504460068C0
:1038E00002F071F9054600F033F928642068BDE85C
:1038F00070403FE72DE9F047A0B09846154689464D
:103900000646DDF8A0A002F05EF9044600F020F9BA
:1039100094F8501048F20C07C90718D0616C814226
:1039200015D0A1B104F0BDFB606CFFF723FF0021AF
:10393000606C0EF0DEFE00221146606C02F0B9FCF5
:103940000021606C04F025FF394606F06EFC6664C9
:10395000206C38B194F85010C90703D004F0A1FBD3
:103960000020206484F850A0002130460EF0C1FEF3
:1039700000F0EEF800210EF0BCFE002211463046A9
:1039800002F097FC00F0E4F80022114602F091FCEE
:103990000021304604F0FDFE394606F046FC00F0FA
:1039A000D7F8002104F0F5FE394606F03EFC6846E3
:1039B0000EF081FE69480290694800960390C8F1B4
:1039C0000006CDE9095610A80EF075FEE06B1090C8
:1039D000CDE91956B9F10A0F4CD2DFE809F0050913
:1039E00013191F27375466785E480190002004E0C1
:1039F0005C48019020460EF045FC00210690CDE980
:103A0000070137E05748019020460EF03BFC0AE0E2
:103A10005548019020460EF021FCEEE752480190F7
:103A200020460EF01BFC404200B2E6E74D480190F4
:103A300020460EF027FC00210690CDE907014948F9
:103A400011900D4620460EF01DFC2BE045480190DC
:103A500020460EF017FC404200B200210690CDE94E
:103A60000701404811900D4620460EF00BFC1695BC
:103A7000CDE9175068460EF062FE10A80EF05FFE0A
:103A800020B0BDE8F0873848019020460EF0E6FBF4
:103A900000210690CDE90701334811900D462046DC
:103AA0000EF0DCFB404200B2E1E72F4801902046D7
:103AB0000EF0D4FB404200B200210690CDE9070190
:103AC000294811900D4620460EF0C8FBCFE7274845
:103AD00001900020FF2191E770B528B1D0F87C015A
:103AE000BDE870400EF055BD4FF0FF34002008E0F7
:103AF000D5F87C010EF04DFD844200D220460446EC
:103B000028460EF073FC0500F2D1204670BD10B5BA
:103B1000040003D10EF09FFB040003D00EF031FD32
:103B2000C4F87C0110BD10B518B90EF094FB002844
:103B300005D0016A002902D0BDE81040084710BD39
:103B400010B518B90EF087FB002800D0C06A10BD70
:103B500010B50EF080FBBDE81040FBE5DB38000837
:103B6000A53800086D7500084175000897380008F1
:103B70001821FB480FF0C4BE70B5F9480FF0C8FE1D
:103B800004460FF097FB002570B19CB1042120463C
:103B90000FF0B6FEE560207D256120F0030040F0C7
:103BA0001C002075204670BD22460023EDA00FF0BA
:103BB000ACFBFEE7002070BD70B50546C06840B1A3
:103BC000006800221721C3699847E868006802F07E
:103BD000B0F828460FF0BFFE0146002405E0086853
:103BE000846328460FF00EFF01460029F7D12846CE
:103BF0000FF04FFF2946DA480FF010FF2846BDE8C6
:103C0000704010F046B92DE9F0470546007D914619
:103C10008A46C0075ED100260127EC68B84674B911
:103C2000287DC0F30010401E304253D1B8F1000F80
:103C300050D028465146884700270446B8460EB95A
:103C4000261E47D037B1214628464A4690470446AB
:103C5000B0423FD00127002CE1D00021206801F0C4
:103C6000EEFB8006DBD4206801F0D9FF0028D6D116
:103C7000E868A0422ED080B1006800221721C369F5
:103C80009847E86800220E21006804F082F90128B4
:103C900020D1E868006802F04CF8EC60206800224F
:103CA0001621C3699847E86800220D21006804F0D6
:103CB00070F901280ED1E868006800F08CF9E86816
:103CC000006802F036F82969002903D02846BDE8CB
:103CD000F0470847BDE8F087A64AA74993E7A74AF7
:103CE000A74990E770B50446007DC0F3001540F089
:103CF000100020750007204602D4FFF7F0FF01E016
:103D0000FFF7EAFF207D65F30410207570BD70B5E4
:103D10000C4606002DD00FF01EFE05E00868A042FC
:103D200027D030460FF06EFE0100F7D1A06B30B106
:103D3000204604F078FE10B1A06BFFF7D3FF3046A9
:103D4000A6630FF041FE05460FF0B4FA58B1002DFE
:103D50000FD030462C600FF0FEFDA84209D130464E
:103D6000BDE87040BEE72A4600237EA00FF0CDFAE2
:103D7000FEE770BD2DE9F041846B0646002C34D07F
:103D8000E0680068B0421BD1207DC10702D020F05E
:103D90000100207520460FF0DEFDE16888420CD15D
:103DA00020460FF035FE0146E068814205D10068EB
:103DB00000221721C369984702E02046FFF792FFCF
:103DC000E06800270068B04200D1E76020460FF0AD
:103DD000C2FD0EE028682946B042204607D10FF008
:103DE0001DFE284610F055F8B763BDE8F0810FF0CE
:103DF00009FE0500EED1F8E770B50546C06800245D
:103E000048B1006800221721C3699847E868006834
:103E100001F08FFFEC6028460FF09DFD04E008687C
:103E2000846328460FF0EEFD0100F8D12846BDE876
:103E300070400FF02EBE002803D0C068002800D0CC
:103E40000068704770B504001DD0207DC0F34002AB
:103E50008A4218D061F3410020752046FFF7EBFF3E
:103E6000050010D00022EB6916219847E068002277
:103E70000D21006804F08DF8012804D12846BDE822
:103E8000704001F056BF70BD70B506004CD0B46BE9
:103E9000002C49D0207DC00746D1E06810B10068F1
:103EA000B04241D000212046FFF7CCFF20460FF062
:103EB00052FD37E02868B04230D1E06880B1006838
:103EC00000221721C3699847E06800220E2100688C
:103ED00004F05FF8012827D1E068006801F029FFAD
:103EE000E560002D20D0286800221621C36998477C
:103EF000216909B120468847E06800220D21006849
:103F000004F047F801280FD1E068006801F011FFC4
:103F1000E0680068BDE8704000F05DB829462046C2
:103F20000FF070FD0500C5D170BD027D19B142F0E2
:103F300001010175704722F00101FAE713B5FFF79F
:103F40007AFF04001ED0E36901AA182198470128CE
:103F500004D101AA0C21204604F01BF81CBD00006E
:103F6000681C00204F7574206F66206D656D6F7240
:103F7000790000004D390108113A0108053A01089D
:103F8000573901080120E9E701617047027D61F3BB
:103F9000820202757047027D61F3C30202757047A9
:103FA000027D61F3041202757047002800D0006999
:103FB0007047002802D0007DC0F340007047002801
:103FC00002D0007DC0F380007047002802D0007D41
:103FD000C0F30010704710B5002406E090F83410CC
:103FE000890600D5044601F012FA0028F6D1002C0B
:103FF00004D02046BDE8104004F047B910BD0000D1
:1040000070B5F94E0C46002590B390F8501041F071
:10401000020180F850107168814200D1356014B1FE
:10402000C16BA14201D1C56314B1416BA14201D161
:10403000456314B1816BA14200D1856370BD90F8D6
:10404000501041F0020180F850107168814200D197
:10405000356014B1C16BA14201D1C56314B1416B8C
:10406000A14201D1456314B1816BA14200D18563A6
:104070000EF048FA0028E2D170BD00210846BFE7E3
:1040800090F85020910717D500214163816390F883
:1040900046308164C16420F82C1F23F01F03418047
:1040A0000C3383768180C180C182018322F00302B8
:1040B00080F82420CC48016070472DE9FF41044678
:1040C00090F82A0080077DD5E06901F0F8F8060035
:1040D00078D004F096FFC44FE8B1304604F081FF79
:1040E0007A680546B4F91400517DC1F16401484372
:1040F000642190FBF1F000B2A08292F815C0B4F9EF
:104100001630CCF1640C03FB0CF393FBF1F109B214
:10411000E182D0B917E094F82A00132120F00200C0
:1041200084F82A00F36930467A689847204601F0FF
:10413000BCF8002868D104B03046BDE8F041002248
:10414000092103F026BF002960D06946304602F0FD
:104150009CF8304602F060F8A18A08440FFA80F813
:10416000304602F041F8E18A032D084401B206D03E
:10417000012D0CD0022D0FD0042D06D00FE00A46E1
:104180004146304602F095F809E0208A20B14146C8
:10419000304603F0EBF902E0304603F0D1F902A912
:1041A000304602F072F8BDF90000BDF908108842EF
:1041B00002D0A08A002827D1BDF90200BDF90A105B
:1041C000884200E020E002D0E08A00281CD194F868
:1041D0002A0020F0020084F82A000020A081E0815B
:1041E000A082E082F369132130467A68984720461E
:1041F00001F05BF8002807D100220921304603F0C6
:10420000C8FE204601F051F8BDE8FF8194F82A006D
:10421000132120F0020084F82A00F3693046984701
:10422000204601F042F80028EED100220921304654
:1042300003F0AFFE04B02046BDE8F04101F035B810
:1042400070B5044690F834004FF00006010707D51A
:10425000A661E661E66220F00800266384F8340077
:10426000614DA0692860002876D0102103F0FDFB85
:10427000002828686A684FF00E01C36918D0984773
:10428000204601F012F8002875D194F82A00800722
:1042900034D494F83400C00726D1002203212868C2
:1042A00003F077FE204601F000F8002863D11BE000
:1042B0009847204600F0F9FF00285CD194F83400BC
:1042C000C0070DD194F82A00800717D400220321DB
:1042D000286803F05EFE204600F0E7FF00284AD180
:1042E00094F82A00800709D400220621286803F0E8
:1042F00050FE204600F0D9FF00283CD100220721C3
:10430000286803F046FE204600F0CFFF002832D197
:10431000286800F0D4FF05001BD004F072FEC0B185
:1043200094F82A00800714D5EB691BB100221221F2
:1043300028469847204600F0B8FF00281BD10022ED
:104340000A21284603F025FE204600F0AEFF002893
:1043500011D1A661E6622663E06900280BD094F8CB
:104360003400800707D42046FFF7A7FE2046BDE8AB
:10437000704000F09ABF70BD2DE9F041044690F8FE
:104380002A00800670D4A56903E0284601F03FF8B2
:104390000546002D68D0284604F048FE0028F4D1D8
:1043A000B4F90C00002801DD014600E041420E4A4C
:1043B00000265268937D994208DAB4F90E1000295C
:1043C00000DC4942994201DAE6842685E18C084402
:1043D00001B2E184208DE3890029184400B22085D0
:1043E00004DD0B4603E000003C0000204B42D77D7B
:1043F000BB4206DC002801DD034600E04342BB422D
:1044000032DD94F82A30002943F0200384F82A3062
:1044100001DD0B4600E04B42002801DD074600E0CD
:104420004742BB4205DD002901DD032004E00220F4
:1044300002E0002803DD012084F8240001E084F874
:104440002460EB69142128469847204600F02DFF90
:10445000002809D100220B21284603F09AFD2046AE
:10446000BDE8F04100F021BFBDE8F0812DE9FE4F2D
:104470000446806900F023FF5FEA00084FF000095E
:10448000404677D004F09DFD002873D0404604F0EC
:10449000A8FD94F82AC00546DFF880A65FEACC7034
:1044A0003FD1208AA1890023084401B22182608A79
:1044B000E289012D104400B260821A4601D0032D1A
:1044C00000D10123022D01D0032D00D10122042DA2
:1044D0000CD1002901DD0E4600E04E42002801DD2E
:1044E000074600E04742BE4201DC01223BB1002901
:1044F00000DC4942DAF804301B7D994209DA002ACF
:1045000038D0002800DC4042DAF80410097D8842E7
:1045100030DB4CF0010084F82A004FF00109C0079D
:1045200028D0A08910B9E089002823D0B8F910005C
:104530000290B8F912B0404600F069FF02F0BDFAEF
:104540000190404600F063FF03F095F8009040466C
:1045500001F062FE0746404601F046FE0646032D86
:1045600009D04FF0000C012D16D0022D24D0042DBF
:1045700032D082E0D0E0B9F1000F59D094F82A008F
:1045800020F01C000C3084F82A00208A384407B23E
:10459000608A304406B24BE0B9F1000F48D094F87D
:1045A0002A0020F01C00001D84F82A00A4F812C084
:1045B000208A384407B23BE0B9F1000F5AD094F892
:1045C0002A0020F01C00083084F82A00A4F810C04B
:1045D000608A304406B24DE0B9F1000F1AD0B4F948
:1045E0001010002901DD0A4600E04A42B4F9120029
:1045F000002801DD034600E043429A4222DD94F8A0
:104600002A0020F01C00001D84F82A00C819A4F814
:1046100012C007B2B4F91010002902DCB4F910007E
:104620004142B4F91200002800DC4042814215DD0D
:10463000A089022D384407B21CD0032D1AD0042DB6
:104640000CD01AE094F82A10304421F01C010831F3
:1046500084F82A10A4F810C006B2DFE7B4F91010ED
:10466000002900DC4942B4F91200002800DC404275
:10467000814202DAE089304406B2DAF80400554695
:10468000C0680DF0BDFE824632463946404601F014
:1046900010FE94F82A0040F0020084F82A00B8F9CD
:1046A0001010029881421FD1B8F9121059451BD140
:1046B000404600F0ACFE02F000FA0646404600F02C
:1046C000A6FE02F0D8FF01998E420DD100998842D2
:1046D0000AD16868C0680DF093FEA0EB0A0081B2B1
:1046E0006868C0680DF091FEB9F1000F14D0D8F8D9
:1046F0001C30404611216A689847204600F0D5FDDD
:10470000002809D100220821404603F042FC20463F
:10471000BDE8FE4F00F0C9BDBDE8FE8F70B5FF4D8E
:104720000446286802F0C3FE06462021286803F0EC
:104730009CF9002832D1206AB0422FD0304602F0D6
:10474000DCFE0546206A08B102F0D7FE854226D17C
:104750001DB13046FFF798FB1AE0206AD0B3002263
:10476000172100F061FE204600F09FFD002815D1C2
:1047700000220E21206A03F00CFC204600F095FD7B
:1047800000280BD126E000220D21304603F001FC69
:10479000204600F08AFD002800D1266270BD20B3BB
:1047A000236AABB14FF0000248B31521184600F060
:1047B0003BFE204600F079FD0028EFD100220F21BA
:1047C000206A03F0E6FB204600F06FFD0028E5D1EB
:1047D000002DBED100221621304600F025FE2046D5
:1047E00000F063FD0028D9D1CDE7206A0028EFD082
:1047F0000022172105E000220E21206AE1E717219F
:10480000184600F011FE204600F04FFD0028F2D0BF
:1048100070BD2DE9F0410F460446002504F0BBFCB5
:1048200020B3201D0FF097F808E03946FFF7F1FF9D
:10483000050024D13146201D0FF0E4F80600F4D124
:10484000204604F09EFB88B1264607E0304601F082
:10485000E6F928B9304600F0DAFD0646002EF5D11B
:104860004021204603F001F908B13EB107E036B916
:104870000021204600F0E3FD800600D425462846AE
:10488000F2E52DE9F041A54D04468069286094F8D1
:10489000341009077ED469680026CF6838B194F8CF
:1048A0002A10890721D4102103F0DFF8E8B938462F
:1048B000FEF775FF211DFFF7ACFF286070B9384681
:1048C000FEF765FF211DFFF7A4FF286030B93846C9
:1048D000FEF740FF211DFFF79CFF2860E06920B133
:1048E000A682E6822046FFF7E8FBA7692868874290
:1048F00068D0A0882081E08860819FB1FB690D218C
:1049000038466A689847204600F0CFFC002841D11D
:1049100000220221384603F03CFB204600F0C5FC93
:10492000002837D12868A061E061A0B30DF029FE0E
:10493000E06294F8340020F0010084F8340094F828
:104940002A00268220F01F000C30668220F0200012
:1049500084F82A00E6842685A681E6810026286858
:1049600006E090F83410890600D5064600F04FFDA9
:104970000028F6D116B1304603F087FC28680B21D9
:104980006A68C3699847204600F08FFC002801D16F
:10499000002201E088E015E01146286803F0F9FAEA
:1049A000204600F082FC00287ED1686890F8501004
:1049B000090779D41C30FFF7B1FE204600F075FCE2
:1049C000002871D1A0882189401A03B2A381E08810
:1049D0006189401A02B2E281B4F9140000EB800050
:1049E00040F3CF01A182B4F91600002900EB80004A
:1049F00040F3CF00E08202DA01F1010102E002DDC2
:104A0000A1F10101A182002802DA00F1010002E017
:104A100002DDA0F10100E082A08A00EB6300A08229
:104A2000E08A00EB6200E082286800283CD0C3697D
:104A30004FF00C016A689847204600F036FC0028C9
:104A400032D100220121286803F0A3FA204600F0A9
:104A50002CFC002828D1686890F85000000723D467
:104A60002046FFF703FD2046FFF786FC204600F0B6
:104A70001CFC002818D194F82A00800714D494F85C
:104A80003400C0072CD1E06A0DF083FD6A68118BF9
:104A900088421DD928680F21C3699847204600F035
:104AA00004FC002800D100E037E00022042128683F
:104AB00003F06FFA204600F0F8FB00282DD194F89F
:104AC000340040F0010084F834000DF05AFD2063FA
:104AD00094F82A00800720D494F83400C0071CD032
:104AE000206B0DF056FD6A68518B884215D92868F5
:104AF0001021C3699847204600F0D7FB00280CD14D
:104B000000220521286803F044FA204600F0CDFB7E
:104B1000002802D10DF035FD2063A5E43C00002003
:104B20002DE9F84F0C460546897B90F85000002788
:104B300001292BD0010706D520F00900AF6485F8C4
:104B4000500085F8207095F82080A07B85F8200023
:104B500060686862D5F858905FEA09007ED0FFF778
:104B60006AF9F74E0028306078D0A07B00B1A781A9
:104B70004846FFF760F9306000286FD0A17B05F14F
:104B80001C0A012905D0002969D03EE1000765D43F
:104B9000D9E7B8F1000F03D0B8F1010F39D034E1F3
:104BA0000DF0EFFCA86461680A2909D0142922D00D
:104BB000132923D01B2925D04846FFF7BFF924E14C
:104BC0008DF8007030686A461921C36998474846D5
:104BD000FFF7EFF99DF800108143D6D1306800222D
:104BE0000B21C3699847504600F05FFB002835D180
:104BF000002211467AE0A089401E01E0A089401CF5
:104C0000A08102E11B214846FFF798F900221421F8
:104C10006CE095F85000C00748D1A86C0DF0B9FCC5
:104C2000298B884295F850003ED940F0010085F864
:104C300050000DF0A6FCE86460680A282ED18DF8BB
:104C4000007030686A461921C36998479DF80000D2
:104C500080B148460EF067FF012801E091E04EE088
:104C60001CD94846FFF7A5F980F001014846FFF737
:104C7000E9F813E0306800220F21C36998475046D5
:104C800000F013FB00287CD100220421306803F0DF
:104C900080F9504600F009FB002872D115F8500F3A
:104CA00040F001002870B0E0C00727D0E86C0DF09C
:104CB00070FC698B884221D90DF063FCE86461685F
:104CC0000A2907D0142996D0132997D04846FFF710
:104CD00035F90EE0306800221021C369984750462C
:104CE00000F0E3FA00284CD100220521306803F0DF
:104CF00050F9504600F0D9FA002842D185E0B8F1C9
:104D0000010F76D161680A2979D18DF80070C369E5
:104D10006A46192198479DF8000098B399F8140045
:104D2000800795F850004FEAC07063D520B148461F
:104D30000EF0F9FE012862D8306800220E21C36906
:104D40009847504600F0B1FA002879D1002203219B
:104D5000306803F01EF9504600F0A7FA00286FD122
:104D600000220621306803F014F9504600F09DFA45
:104D7000002865D100220721306803F00AF9504667
:104D800001E05DE008E000F090FA002858D10A2127
:104D90004846FFF7D3F832E0306800220E21C3699D
:104DA0009847504600F081FA002849D195F8500004
:104DB000C00704D100220321306803F0EAF850460E
:104DC00000F073FA00283BD100220621306803F07E
:104DD000E0F8504600F069FA002831D1002207219E
:104DE000306803F0D6F8504600F05FFA002827D16B
:104DF00005E00AE018B901214846FFF723F845F815
:104E0000487F287A20F0010028723760A0890028A6
:104E100016D04846FFF7CDF80028B4F90C001ED094
:104E200000280FDA4FF0000505E04FF01401484666
:104E3000FFF784F86D1CB4F90C004042A842F4DC82
:104E4000BDE8F88FFCDD002504E013214846FFF79C
:104E500075F86D1CB4F90C00A842F6DCF0E70028E8
:104E60000CDA4FF0000503E04846FEF735FF6D1CF5
:104E7000B4F90C004042A842F6DCE1E7E0DD002591
:104E800003E04846FEF72BFF6D1CB4F90C00A84266
:104E9000F7DCD5E72DE9F0470D460446897B90F80D
:104EA00050000027012923D0010706D520F0090072
:104EB000A76484F8500084F82070D4F858805FEA22
:104EC00008007CD0FEF7B7FF1D4E0028306076D07A
:104ED000626A6968616294F82010AB7B84F82030C4
:104EE000AB7B04F11C09012B05D0002B68D0DDE061
:104EF000000764D4E1E711B101293DD0D6E00DF0FF
:104F000040FBA06469680A2909D01B291AD0092925
:104F100022D00B2928D04046FFF710F8C6E00A211E
:104F20004046FFF70BF8306800220B21C369984711
:104F3000484600F0BAF9002841D10022114607E0A6
:104F40003C0000201B214046FEF7F8FF0022142100
:104F5000306803F01EF860E000214046FEF772FF63
:104F60004046FEF7BCFE58E000214046FEF76AFFCF
:104F70004046FEF7B1FE50E069680A2912D10022CE
:104F8000C3690C219847484600F08FF9002816D1D4
:104F900000220121306802F0FCFF484600F085F94C
:104FA00000280CD194F85000C00723D1A06C0DF05C
:104FB000F0FA218B884294F8500019D901E076E08C
:104FC0003EE040F0010084F8500068680A286DD186
:104FD0000DF0D7FAE064306800220F21C3699847CA
:104FE000484600F062F9002861D100220421AFE7B1
:104FF000C0075BD0E06C0DF0CCFA618B884255D9CC
:105000000DF0BFFAE06469680A290CD00929A3D021
:105010000B29A9D04046FEF791FF484600F045F91C
:10502000002844D142E0306800221021C36998472B
:10503000484600F03AF9002839D10022052187E7D7
:10504000012933D16A600A2A2AD10022C3690E21BC
:105050009847484600F029F9002828D194F85000D4
:10506000C00709D100220321306802F092FF4846B0
:1050700000F01BF900281AD100220621306802F046
:1050800088FF484600F011F9002810D100220721BE
:10509000306802F07EFF484600F007F9002806D18C
:1050A00044F8487F207A20F0010020723760BDE884
:1050B000F0877FB5C94CC0686060C168002944D0E2
:1050C000FEF7DEFF606890F8500040073DD40025F1
:1050D000694660680DF01EFA06466068FEF7D0FF6C
:1050E000256061689DF80E000877012805D00878D2
:1050F000042808D1BDF80C00C0B10DF042FA616877
:10510000C968C1F87C0160680178012906D00229CC
:1051100008D004290AD003290DD00FE0694600F019
:1051200015F90BE06946FFF7B5FE07E069466068D0
:10513000FFF7F6FC02E0694600F0CFF86068FEF782
:105140009FFF002EC4D1656025607FBDA3484068E5
:105150007047002800D00078704710B5044614F856
:10516000500F20F0010004F808090DF00AFA606001
:105170000DF007FA206010BD002805D0CA4310F8D2
:10518000501F62F382010170704710B50446007829
:10519000012814D16165E068FEF701FB0146606DEE
:1051A00003F011F8B4F92220B4F92010606D01F079
:1051B00080F8606DBDE81040002103F0B4BB10BD65
:1051C0000278022A01D0042A00D181657047027852
:1051D000032A00D1C165704730B10278012A05D099
:1051E000032A03D04FF0FF30088002E0028C0A80CF
:1051F000408C4880704790F8400070470178022941
:1052000001D000207047406A7047002805D001781F
:10521000012903D0032901D00020704790F84600EF
:10522000C0F340007047002320B10278012A04D067
:10523000032A02D00B804B807047028D0A80408D7C
:105240004880704710B5F8B1017801291CD190F859
:1052500046108A0718D521F0020180F84610002177
:1052600001864186406B00F02AF804000CD0002231
:10527000E36913219847012807D120460022BDE8A1
:105280001040092102F085BE012010BD002804D085
:1052900010F8501F41F00801017070474F48006836
:1052A0007047002800D0C06A704790F8340081072A
:1052B00002D54A4A00211160C0F34000704710B582
:1052C000002809D0044603F0ACFE20B11CB12046F2
:1052D00000F09DF8F6E7204610BD2DE9F0410446A8
:1052E000C06D0D4600282CD0A968022204F11C08CC
:1052F00030F9217002EB8101465EA97B01290AD1B8
:10530000B4F92400B84203D1B4F92600B04202D067
:105310004046FEF795FF4046FFF7C7FF002810D133
:1053200027846684A87B012840460CD0FEF788FFBE
:105330004046FFF7BAFF002803D1208CA084608C80
:10534000E084BDE8F081FFF79CFAF1E770B505460F
:10535000C0680C46017AC1F34101022901D003293A
:1053600009D101882288891A491E218041886288D2
:10537000891A491E6180017AC1F34101012901D0D6
:10538000032906D16188228862804088401A401E25
:105390002080686D78B1B5F92420B4F900108A42F4
:1053A00005D1B5F92620B4F902309A4203D0B4F9F8
:1053B000022000F07EFF2088288460886884297F8E
:1053C00005F11C00012906D0FEF73AFF288CA884BD
:1053D000688CE88470BDFFF754FAF7E73C000020C2
:1053E00008B5020C010AC308BDF80000890863F380
:1053F000040080B261F34A10D10880B261F3CF207B
:10540000ADF8000080B20090BDF8000008BD10B5F6
:1054100004460DF04FFF08B1206810BD224600235E
:10542000FEA00DF072FFFEE710B530B1C469012394
:105430000CB1A0470346184610BD012010BD38B579
:105440000D4604460DF036FF01004FF0000004D079
:10545000402D08D294F83D0038BD22460023EFA02D
:105460000DF053FFFEE78DF800508DF801006A46FD
:1054700009212046FFF7D8FF9DF8010038BD1CB573
:1054800059B18DF80010002101916A460821FFF7FB
:10549000CBFF012803D000201CBD28301CBD019883
:1054A0001CBD2DE9F84315460F4616464FEA122952
:1054B000804637E03946FFF7E2FF044640680105C1
:1054C0001DD481061BD0400505D425F4FE42394683
:1054D000404600F0FFF825F4FE406E2809D07F28F2
:1054E00004D08E38B0F5004F09D105E060680001A6
:1054F00003E06068800100E06068002815DB394641
:105500004046FFF79CFF06EB002085B26A4629461D
:10551000204605F09FFA012814D05FEA096004D5FF
:1055200097B10027B8F10000C4D125F4FE407E28D1
:105530000ED0BE280FD08E38B0F5004F08D0002016
:10554000BDE8F8830098FBE74046FFF760FFAFE750
:1055500010F08FF8F4E7B548F2E72DE9F843154667
:105560000F4616464FEA1229804637E03946FFF7C4
:1055700086FF0446406801051DD481061BD0400506
:1055800005D425F4FE423946404600F0A3F825F440
:10559000FE402C2809D00C38B0F5004002D0A128DC
:1055A00009D12AE0A088800403E06068C10222D407
:1055B0000003002815DB39464046FFF740FF06EBA5
:1055C000002085B26A462946204605F008FA0128DF
:1055D00016D05FEA096004D5AFB10027B8F100002A
:1055E000C4D125F4FE402C2811D06D280FD0AD3841
:1055F000B0F5004F0BD0FF20A2E76068C000D8E7ED
:105600009DF800009CE74046FFF701FFACE7002053
:1056100096E732285CD02ADC132859D014DC0628FF
:1056200056D008DC012853D0022851D004284FD08E
:1056300005284BD14CE007284AD0102848D0112823
:1056400046D0122842D143E0202841D008DC15285A
:105650003ED016283CD017283AD0182836D137E04B
:105660002C2835D0302833D031282FD130E0912864
:105670002ED014DC54282BD008DC332828D0402826
:1056800026D0422824D0502820D121E060281FD0E5
:105690006E281DD072281BD07F2817D118E048F241
:1056A0008302811A904213D00ADCFF2810D00C38F4
:1056B000B0F500400CD074280AD0752806D107E058
:1056C0000B2905D01D2903D02A2901D000207047BD
:1056D000012070472DE9F04107460E461046FFF7BE
:1056E00098FF00287ED031463846FFF7C8FE0446B2
:1056F00040683146C0F3C02540F400606060384621
:1057000003F096FEFF28606817D020F40050606018
:105710003146384603F085FE0028606810D020F03E
:10572000804060603146384603F077FE4049884249
:10573000606808D140F0004007E040F40050E6E720
:1057400040F08040EDE720F0004040F00050606005
:105750003146384603F05DFE20B93146384603F045
:1057600054FE18B1606820F0005060603146384641
:1057700003F048FE010060687ED020F400206060E5
:10578000FF297AD020F4801060603146384603F05B
:1057900036FE002860687ED020F40010606031463C
:1057A000384603F026FE0F28606877D020F480008A
:1057B00060603146384603F014FE0028606872D0FD
:1057C00020F4000060603146384603F002FE0028F5
:1057D00060686BD020F4804060603146384603F04A
:1057E000F4FD00E004E10028606862D020F0805001
:1057F00060603146384603F0E5FD002860685BD004
:1058000020F0807060603146384603F0D8FD0028F3
:10581000606854D020F0007031460BE04E554C4C7F
:1058200020706F696E7465720000000008930208B2
:10583000A40000206060384600F0AFF900286068DE
:1058400040D020F4805060603146384603F0B4FD0B
:105850000028606839D020F08060606031463846AA
:1058600003F0A7FD0028606832D020F0006040F40B
:1058700000403146606003E007E009E00BE00DE026
:10588000384603F093FDB8BB25E040F4002076E7EE
:1058900040F4801078E740F400107FE740F4800087
:1058A00086E700E002E040F400008BE740F480402F
:1058B00092E740F080509BE740F08070A2E740F014
:1058C0000070A9E740F48050BDE740F08060C4E775
:1058D00040F00060CBE73146384603F064FD58B92C
:1058E0003146384603F05CFD30B93146384603F0A6
:1058F00054FDB0F5807F0CD0606820F400406060FB
:1059000040F4803060603146384603F043FD88B98A
:1059100001E06068F4E73146384603F038FD48B9E5
:105920003146384603F030FD20B93146384603F0A1
:1059300028FD60B1606820F48030606040F4003081
:1059400060603146384603F019FD88B901E06068AF
:10595000F4E73146384603F00EFD48B93146384683
:1059600003F006FD20B93146384603F0FEFC60B175
:10597000606820F40030606040F480206060314650
:10598000384603F0ECFC50BB01E06068F4E73146B8
:10599000384603F0DEFC10BB3146384603F0D3FC3A
:1059A000E8B93146384603F0C8FCC0B9314638463C
:1059B00003F0BDFC98B93146384603F0B1FC70B92C
:1059C0003146384603F0A6FC48B93146384603F064
:1059D0009AFC20B93146384603F08FFC50B160681C
:1059E00020F48020606065F3CB2040F4806060602C
:1059F000BDE8F0816068F6E72DE9F84315460F46EB
:105A000016464FEA12298046A1E03946FFF737FDD6
:105A100004464068010570D481066ED0400505D467
:105A200025F4FE4239464046FFF754FE25F4FE4079
:105A3000302859D024DC112869D010DC052850D03A
:105A400006DC01285DD0022845D004286CD148E04E
:105A5000062846D0072844D0102865D157E01628DC
:105A600058D006DC122852D0132850D015285BD10C
:105A700050E017284ED018284CD0202854D14CE0A4
:105A800060284AD010DC402838D006DC31282ED0DF
:105A9000322842D0332847D12CE042283DD050282C
:105AA00032D0542840D138E048F28102811A904225
:105AB00014D009DC722830D091282ED000F5FF4098
:105AC000B0F5803F30D109E0012929D0022924D046
:105AD0001F2929D121E0A088400423E060688000CC
